:020000040000FA
:1000000000008A110A122629D03083120313AD0092
:100010000730AE00AF01B0017030831603138F00BC
:10002000523090008316031788018901FF30831630
:1000300003138500960195018601803087008801B1
:10004000831203138501860187010130880083161E
:10005000031318150130990018128312031398170F
:100060008316031398161813831203131813831699
:1000700003138C120C12831203131816FF30831211
:100080000313B1007F30B200FF3083120313B107B6
:10009000031CB20331083204031D4428FF30B100B1
:1000A0007F30B200FF3083120313B107031CB20389
:1000B00031083204031D5228813083120313880053
:1000C000FF3083120313AD07031CAE032D082E046B
:1000D000031D7028AF011030AD002730AE0060283E
:1000E000831203138C1E6028181D79283F309A0054
:1000F000102983120313981C8228181218163F30F7
:100100009A001029831203131A0883120313B100F3
:100110002F08031DD9283108FF3A031DBC280130E0
:10012000831203138800203083120313B2004E3071
:10013000B300FF3083120313B207031CB30332086A
:100140003304031D99288130831203138800203063
:1001500083120313B2004E30B300FF308312031337
:10016000B207031CB30332083304031DAD284F301C
:1001700018214B3018211029F03083120313310558
:10018000B0000F30B1053108031DC8283014D52840
:10019000831203133108013A031DD1280530B0043E
:1001A000D528093083120313B00483120313AF0A56
:1001B0001029831203132F08013A031DF728310871
:1001C0008312031386008312031330088312031370
:1001D00088000814081408100810081008100814E3
:1001E00008140814081483120313AF0A1029831289
:1001F00003132F08023A031D102931088312031339
:100200008600033088040814081408100810081029
:100210000810081408140814081483120313AF01FB
:10022000103083120313AD002730AE0060280800A1
:1002300083120313AC0083160313981C1B2983122B
:1002400003132C088312031399000800F630FE00F4
:100250000130FF0080308A110A12D5218A110A125A
:1002600083120313A1007F08A000F830A200013020
:10027000A300831203132008A4002108A500FF3067
:10028000A007031CA103240825040319BE29043078
:100290002207A400A501A50D2308A5072408FE0038
:1002A0002508FF0080308A110A12D5218A110A120E
:1002B00083120313A7007F08A6002208FE0023086C
:1002C000FF0080308A110A12D5218A110A12831286
:1002D0000313A900A5007F08A800A400023022078C
:1002E000A400A501A50D2308A5072408FE002508E4
:1002F000FF0080308A110A12D5218A110A12831256
:100300000313A500AB007F08A400AA008312031307
:100310002608AA002708AB00FF30A607031CA70386
:100320002A082B040319B7292808FE002908FF0012
:1003300080308A110A12C2218A110A128312031311
:10034000AA00240883120313840083138312031367
:10035000251883172A0883120313800083120313BE
:10036000A80A0319A90AA40A0319A50A86290630AE
:1003700083120313A2070318A30A39298A110A1248
:1003800004280800003A0319C929803A0319D02922
:1003900000347E08840083137F1883170008080048
:1003A0007F088A007E0882000800003A0319DD29D0
:1003B000803A0319E729FF0100347E088400831383
:1003C0007F1883170008FF00840A000808008A11BC
:1003D0000A12D021FD00FE0FFF03FF0A8A110A1244
:1003E000D021FC007D08FF007C08080001340034A7
:0E03F000FE340134343400340134003400345F
:02400E00D22CB2
:02401000FF3F70
:00000001FF
